{
    "contractName": "Lottery",
    "abi": [
        {
            "inputs": [
                {
                    "internalType": "uint256",
                    "name": "fee",
                    "type": "uint256"
                }
            ],
            "stateMutability": "nonpayable",
            "type": "constructor"
        },
        {
            "inputs": [],
            "name": "admin",
            "outputs": [
                {
                    "internalType": "address",
                    "name": "",
                    "type": "address"
                }
            ],
            "stateMutability": "view",
            "type": "function"
        },
        {
            "inputs": [],
            "name": "betCount",
            "outputs": [
                {
                    "internalType": "uint256",
                    "name": "",
                    "type": "uint256"
                }
            ],
            "stateMutability": "view",
            "type": "function"
        },
        {
            "inputs": [],
            "name": "betSize",
            "outputs": [
                {
                    "internalType": "uint256",
                    "name": "",
                    "type": "uint256"
                }
            ],
            "stateMutability": "view",
            "type": "function"
        },
        {
            "inputs": [],
            "name": "currentState",
            "outputs": [
                {
                    "internalType": "enum Lottery.State",
                    "name": "",
                    "type": "uint8"
                }
            ],
            "stateMutability": "view",
            "type": "function"
        },
        {
            "inputs": [],
            "name": "houseFee",
            "outputs": [
                {
                    "internalType": "uint256",
                    "name": "",
                    "type": "uint256"
                }
            ],
            "stateMutability": "view",
            "type": "function"
        },
        {
            "inputs": [
                {
                    "internalType": "uint256",
                    "name": "",
                    "type": "uint256"
                }
            ],
            "name": "players",
            "outputs": [
                {
                    "internalType": "address payable",
                    "name": "",
                    "type": "address"
                }
            ],
            "stateMutability": "view",
            "type": "function"
        },
        {
            "inputs": [],
            "name": "getPlayers",
            "outputs": [
                {
                    "internalType": "address[]",
                    "name": "",
                    "type": "address[]"
                }
            ],
            "stateMutability": "view",
            "type": "function"
        },
        {
            "inputs": [
                {
                    "internalType": "uint256",
                    "name": "count",
                    "type": "uint256"
                },
                {
                    "internalType": "uint256",
                    "name": "size",
                    "type": "uint256"
                }
            ],
            "name": "createBet",
            "outputs": [],
            "stateMutability": "nonpayable",
            "type": "function"
        },
        {
            "inputs": [],
            "name": "bet",
            "outputs": [],
            "stateMutability": "payable",
            "type": "function"
        },
        {
            "inputs": [],
            "name": "cancel",
            "outputs": [],
            "stateMutability": "nonpayable",
            "type": "function"
        }
    ],
    "bytecode": "0x60806040526000600160006101000a81548160ff0219169083600181111562000051577f4e487b7100000000000000000000000000000000000000000000000000000000600052602160045260246000fd5b02179055503480156200006357600080fd5b506040516200142338038062001423833981810160405281019062000089919062000142565b6001811180156200009a5750606381105b620000dc576040517f08c379a0000000000000000000000000000000000000000000000000000000008152600401620000d390620001b0565b60405180910390fd5b33600560006101000a81548173ffffffffffffffffffffffffffffffffffffffff021916908373ffffffffffffffffffffffffffffffffffffffff160217905550806004819055505062000207565b6000815190506200013c81620001ed565b92915050565b6000602082840312156200015557600080fd5b600062000165848285016200012b565b91505092915050565b60006200017d601e83620001d2565b91507f6665652073686f756c64206265206265747765656e203120616e6420393900006000830152602082019050919050565b60006020820190508181036000830152620001cb816200016e565b9050919050565b600082825260208201905092915050565b6000819050919050565b620001f881620001e3565b81146200020457600080fd5b50565b61120c80620002176000396000f3fe6080604052600436106100915760003560e01c8063cf09449711610059578063cf0944971461014c578063ea8a1af014610177578063f71d96cb1461018e578063f851a440146101cb578063fff058e6146101f657610091565b80630c3f6acf146100965780630ed469b8146100c157806311610c25146100ec5780635d1d3e26146100f65780638b5b9ccc14610121575b600080fd5b3480156100a257600080fd5b506100ab61021f565b6040516100b89190610e88565b60405180910390f35b3480156100cd57600080fd5b506100d6610232565b6040516100e39190610f03565b60405180910390f35b6100f4610238565b005b34801561010257600080fd5b5061010b610501565b6040516101189190610f03565b60405180910390f35b34801561012d57600080fd5b50610136610507565b6040516101439190610e66565b60405180910390f35b34801561015857600080fd5b50610161610683565b60405161016e9190610f03565b60405180910390f35b34801561018357600080fd5b5061018c610689565b005b34801561019a57600080fd5b506101b560048036038101906101b09190610bbb565b61090d565b6040516101c29190610e4b565b60405180910390f35b3480156101d757600080fd5b506101e061094c565b6040516101ed9190610e30565b60405180910390f35b34801561020257600080fd5b5061021d60048036038101906102189190610be4565b610972565b005b600160009054906101000a900460ff1681565b60045481565b60018060009054906101000a900460ff166001811115610281577f4e487b7100000000000000000000000000000000000000000000000000000000600052602160045260246000fd5b8160018111156102ba577f4e487b7100000000000000000000000000000000000000000000000000000000600052602160045260246000fd5b146102fa576040517f08c379a00000000000000000000000000000000000000000000000000000000081526004016102f190610ee3565b60405180910390fd5b600354341461033e576040517f08c379a000000000000000000000000000000000000000000000000000000000815260040161033590610ea3565b60405180910390fd5b6000339080600181540180825580915050600190039060005260206000200160009091909190916101000a81548173ffffffffffffffffffffffffffffffffffffffff021916908373ffffffffffffffffffffffffffffffffffffffff16021790555060025460008054905014156104fe5760006103bd600254610b28565b9050600081815481106103f9577f4e487b7100000000000000000000000000000000000000000000000000000000600052603260045260246000fd5b9060005260206000200160009054906101000a900473ffffffffffffffffffffffffffffffffffffffff1673ffffffffffffffffffffffffffffffffffffffff166108fc6064600454606461044e9190610ff3565b60025460035461045e9190610f99565b6104689190610f99565b6104729190610f68565b9081150290604051600060405180830381858888f1935050505015801561049d573d6000803e3d6000fd5b506000600160006101000a81548160ff021916908360018111156104ea577f4e487b7100000000000000000000000000000000000000000000000000000000600052602160045260246000fd5b02179055506000806104fc9190610b68565b505b50565b60035481565b60606000808054905067ffffffffffffffff81111561054f577f4e487b7100000000000000000000000000000000000000000000000000000000600052604160045260246000fd5b60405190808252806020026020018201604052801561057d5781602001602082028036833780820191505090505b50905060005b60008054905081101561067b57600081815481106105ca577f4e487b7100000000000000000000000000000000000000000000000000000000600052603260045260246000fd5b9060005260206000200160009054906101000a900473ffffffffffffffffffffffffffffffffffffffff1682828151811061062e577f4e487b7100000000000000000000000000000000000000000000000000000000600052603260045260246000fd5b602002602001019073ffffffffffffffffffffffffffffffffffffffff16908173ffffffffffffffffffffffffffffffffffffffff168152505080806106739061109a565b915050610583565b508091505090565b60025481565b60018060009054906101000a900460ff1660018111156106d2577f4e487b7100000000000000000000000000000000000000000000000000000000600052602160045260246000fd5b81600181111561070b577f4e487b7100000000000000000000000000000000000000000000000000000000600052602160045260246000fd5b1461074b576040517f08c379a000000000000000000000000000000000000000000000000000000000815260040161074290610ee3565b60405180910390fd5b600560009054906101000a900473ffffffffffffffffffffffffffffffffffffffff1673ffffffffffffffffffffffffffffffffffffffff163373ffffffffffffffffffffffffffffffffffffffff16146107db576040517f08c379a00000000000000000000000000000000000000000000000000000000081526004016107d290610ec3565b60405180910390fd5b60005b6000805490508110156108ab5760008181548110610825577f4e487b7100000000000000000000000000000000000000000000000000000000600052603260045260246000fd5b9060005260206000200160009054906101000a900473ffffffffffffffffffffffffffffffffffffffff1673ffffffffffffffffffffffffffffffffffffffff166108fc6003549081150290604051600060405180830381858888f19350505050158015610897573d6000803e3d6000fd5b5080806108a39061109a565b9150506107de565b506000806108b99190610b68565b6000600160006101000a81548160ff02191690836001811115610905577f4e487b7100000000000000000000000000000000000000000000000000000000600052602160045260246000fd5b021790555050565b6000818154811061091d57600080fd5b906000526020600020016000915054906101000a900473ffffffffffffffffffffffffffffffffffffffff1681565b600560009054906101000a900473ffffffffffffffffffffffffffffffffffffffff1681565b6000600160009054906101000a900460ff1660018111156109bc577f4e487b7100000000000000000000000000000000000000000000000000000000600052602160045260246000fd5b8160018111156109f5577f4e487b7100000000000000000000000000000000000000000000000000000000600052602160045260246000fd5b14610a35576040517f08c379a0000000000000000000000000000000000000000000000000000000008152600401610a2c90610ee3565b60405180910390fd5b600560009054906101000a900473ffffffffffffffffffffffffffffffffffffffff1673ffffffffffffffffffffffffffffffffffffffff163373ffffffffffffffffffffffffffffffffffffffff1614610ac5576040517f08c379a0000000000000000000000000000000000000000000000000000000008152600401610abc90610ec3565b60405180910390fd5b826002819055508160038190555060018060006101000a81548160ff02191690836001811115610b1e577f4e487b7100000000000000000000000000000000000000000000000000000000600052602160045260246000fd5b0217905550505050565b6000814244604051602001610b3e929190610e04565b6040516020818303038152906040528051906020012060001c610b6191906110ed565b9050919050565b5080546000825590600052602060002090810190610b869190610b89565b50565b5b80821115610ba2576000816000905550600101610b8a565b5090565b600081359050610bb5816111bf565b92915050565b600060208284031215610bcd57600080fd5b6000610bdb84828501610ba6565b91505092915050565b60008060408385031215610bf757600080fd5b6000610c0585828601610ba6565b9250506020610c1685828601610ba6565b9150509250929050565b6000610c2c8383610c47565b60208301905092915050565b610c4181611039565b82525050565b610c5081611027565b82525050565b610c5f81611027565b82525050565b6000610c7082610f2e565b610c7a8185610f46565b9350610c8583610f1e565b8060005b83811015610cb6578151610c9d8882610c20565b9750610ca883610f39565b925050600181019050610c89565b5085935050505092915050565b610ccc81611088565b82525050565b6000610cdf602183610f57565b91507f63616e206f6e6c79206265742065786163746c7920746865206265742073697a60008301527f65000000000000000000000000000000000000000000000000000000000000006020830152604082019050919050565b6000610d45600a83610f57565b91507f6f6e6c792061646d696e000000000000000000000000000000000000000000006000830152602082019050919050565b6000610d85602183610f57565b91507f63757272656e7420737461746520646f6573206e6f7420616c6c6f772074686960008301527f73000000000000000000000000000000000000000000000000000000000000006020830152604082019050919050565b610de78161107e565b82525050565b610dfe610df98261107e565b6110e3565b82525050565b6000610e108285610ded565b602082019150610e208284610ded565b6020820191508190509392505050565b6000602082019050610e456000830184610c56565b92915050565b6000602082019050610e606000830184610c38565b92915050565b60006020820190508181036000830152610e808184610c65565b905092915050565b6000602082019050610e9d6000830184610cc3565b92915050565b60006020820190508181036000830152610ebc81610cd2565b9050919050565b60006020820190508181036000830152610edc81610d38565b9050919050565b60006020820190508181036000830152610efc81610d78565b9050919050565b6000602082019050610f186000830184610dde565b92915050565b6000819050602082019050919050565b600081519050919050565b6000602082019050919050565b600082825260208201905092915050565b600082825260208201905092915050565b6000610f738261107e565b9150610f7e8361107e565b925082610f8e57610f8d61114d565b5b828204905092915050565b6000610fa48261107e565b9150610faf8361107e565b9250817fffffffffffffffffffffffffffffffffffffffffffffffffffffffffffffffff0483118215151615610fe857610fe761111e565b5b828202905092915050565b6000610ffe8261107e565b91506110098361107e565b92508282101561101c5761101b61111e565b5b828203905092915050565b60006110328261105e565b9050919050565b60006110448261105e565b9050919050565b6000819050611059826111ab565b919050565b600073ffffffffffffffffffffffffffffffffffffffff82169050919050565b6000819050919050565b60006110938261104b565b9050919050565b60006110a58261107e565b91507fffffffffffffffffffffffffffffffffffffffffffffffffffffffffffffffff8214156110d8576110d761111e565b5b600182019050919050565b6000819050919050565b60006110f88261107e565b91506111038361107e565b9250826111135761111261114d565b5b828206905092915050565b7f4e487b7100000000000000000000000000000000000000000000000000000000600052601160045260246000fd5b7f4e487b7100000000000000000000000000000000000000000000000000000000600052601260045260246000fd5b7f4e487b7100000000000000000000000000000000000000000000000000000000600052602160045260246000fd5b600281106111bc576111bb61117c565b5b50565b6111c88161107e565b81146111d357600080fd5b5056fea2646970667358221220ccb7dcfb95ab3f8423394c27718e4590d77863b5bcc62cc2515e29c0be2e206464736f6c63430008000033",
    "immutableReferences": {},
    "source": "pragma solidity ^0.8.0;\r\n\r\ncontract Lottery {\r\n    enum State {\r\n        IDLE,\r\n        BETTING\r\n    }\r\n    address payable[] public players;\r\n    State public currentState = State.IDLE;\r\n    uint256 public betCount;\r\n    uint256 public betSize;\r\n    uint256 public houseFee;\r\n    address public admin;\r\n\r\n    constructor(uint256 fee) {\r\n        require(fee > 1 && fee < 99, \"fee should be between 1 and 99\");\r\n        admin = msg.sender;\r\n        houseFee = fee;\r\n    }\r\n\r\n    function getPlayers() external view returns(address[] memory) {\r\n        address[] memory _players = new address[](players.length);\r\n        for (uint256 index = 0; index < players.length; index++) {\r\n            _players[index] = players[index];\r\n        }\r\n        return _players;\r\n    }\r\n\r\n    function createBet(uint256 count, uint256 size)\r\n        external\r\n        inState(State.IDLE)\r\n        onlyAdmin\r\n    {\r\n        betCount = count;\r\n        betSize = size;\r\n        currentState = State.BETTING;\r\n    }\r\n\r\n    function bet() external payable inState(State.BETTING) {\r\n        require(msg.value == betSize, \"can only bet exactly the bet size\");\r\n        players.push(payable(msg.sender));\r\n        if (players.length == betCount) {\r\n            uint256 winner = _randomModulo(betCount);\r\n            players[winner].transfer(\r\n                ((betSize * betCount) * (100 - houseFee)) / 100\r\n            );\r\n            currentState = State.IDLE;\r\n            delete players;\r\n        }\r\n    }\r\n\r\n    function cancel() external inState(State.BETTING) onlyAdmin {\r\n        for (uint256 i = 0; i < players.length; i++) {\r\n            players[i].transfer(betSize);\r\n        }\r\n        delete players;\r\n        currentState = State.IDLE;\r\n    }\r\n\r\n    function _randomModulo(uint256 modulo) internal view returns (uint256) {\r\n        return\r\n            uint256(\r\n                keccak256(abi.encodePacked(block.timestamp, block.difficulty))\r\n            ) % modulo;\r\n    }\r\n\r\n    modifier inState(State state) {\r\n        require(state == currentState, \"current state does not allow this\");\r\n        _;\r\n    }\r\n\r\n    modifier onlyAdmin() {\r\n        require(msg.sender == admin, \"only admin\");\r\n        _;\r\n    }\r\n}\r\n",
    "sourcePath": "C:\\laragon\\www\\hackathonNervos\\lottery\\contracts\\Lottery.sol",
    "compiler": {
        "name": "solc",
        "version": "0.8.0+commit.c7dfd78e.Emscripten.clang"
    },
    "schemaVersion": "3.4.3",
    "updatedAt": "2021-09-03T05:13:58.642Z",
    "devdoc": {
        "kind": "dev",
        "methods": {},
        "version": 1
    },
    "userdoc": {
        "kind": "user",
        "methods": {},
        "version": 1
    }
}